:04000000DAEF7EF0C5
:10FDB400000138EF7FF0000E0D6E000E0C6E09D0BE
:10FDC400030E0B6E980EE82EFED70B2EFCD70C4AB2
:10FDD4000D2A09500C5C0D50800A0B6E0A50800AE3
:10FDE4000B58D8B01200ECD7000E066E04AE06D045
:10FDF400036C041ED8B0042A010E066E02AE06D0AF
:10FE0400016C021ED8B0022A010E061A000E086EFA
:10FE1400000E076E03500410D8B41CD0010E056EFA
:10FE240004D0D89003360436052A04AEFAD7D89005
:10FE3400073608360350015C04500258D8A005D098
:10FE44000350015E0450025A0780D89004320332F2
:10FE5400052EEDD70650D8B404D0076C081ED8B0D0
:10FE6400082A07C001F008C002F01200000E116E4B
:10FE7400050E106E000E136E000E126E000E196E3B
:10FE8400080E186E030E026EE80E016ED890103440
:10FE9400036E1134046EF6EC7EF001C014F002C05F
:10FEA40015F00F014885C29EC29C949C949E92902A
:10FEB4009292939A939892849480948282B0FED77B
:10FEC400000E176E000E166E16041710D8A403D079
:10FED4008B8E8B9C02D08B8C8B9E89828990680E32
:10FEE4000E6EE40EE82EFED70E2EFCD700D080D086
:10FEF40080B4FED716041710D8A402D08B9E01D06C
:10FF04008B9C898012C009F013C00AF0DDEC7EF0EE
:10FF140018C001F019C002F0000E046E020E036E48
:10FF2400F6EC7EF001C009F002C00AF0DDEC7EF0D0
:10FF34008A8A18C001F019C002F0000E046E020E85
:10FF4400036EF6EC7EF001C009F002C00AF0DDECAD
:10FF54007EF08A9A18C001F019C002F0000E046EF7
:10FF6400020E036EF6EC7EF001C009F002C00AF046
:10FF7400DDEC7EF08A8818C001F019C002F0000E92
:10FF8400046E020E036EF6EC7EF001C009F002C0AE
:10FF94000AF0DDEC7EF08A9818C001F019C002F076
:10FFA400000E046E020E036EF6EC7EF001C009F042
:10FFB40002C00AF0DDEC7EF08982899018C00EF050
:10FFC40019C00FF0D8900E360F360E1E0F1E0E4AB3
:10FFD4000F2A14500E24096E15500F200A6EDDEC02
:10FFE4007EF016041710D8A402D08B8E01D08B8C0F
:04FFF40089927ED799
:08FFF800B4F7DEFFF2FBBFFBD2
:00000001FF
